{
  "_format": "hh-sol-artifact-1",
  "contractName": "Split",
  "sourceName": "contracts/Split.sol",
  "abi": [
    {
      "inputs": [],
      "stateMutability": "nonpayable",
      "type": "constructor"
    },
    {
      "inputs": [
        {
          "internalType": "address",
          "name": "_to",
          "type": "address"
        },
        {
          "internalType": "uint256",
          "name": "_share",
          "type": "uint256"
        }
      ],
      "name": "addToList",
      "outputs": [],
      "stateMutability": "nonpayable",
      "type": "function"
    },
    {
      "inputs": [
        {
          "internalType": "address",
          "name": "",
          "type": "address"
        }
      ],
      "name": "balance",
      "outputs": [
        {
          "internalType": "uint256",
          "name": "",
          "type": "uint256"
        }
      ],
      "stateMutability": "view",
      "type": "function"
    },
    {
      "inputs": [],
      "name": "deposit",
      "outputs": [],
      "stateMutability": "payable",
      "type": "function"
    },
    {
      "inputs": [],
      "name": "owner",
      "outputs": [
        {
          "internalType": "address",
          "name": "",
          "type": "address"
        }
      ],
      "stateMutability": "view",
      "type": "function"
    },
    {
      "inputs": [
        {
          "internalType": "address",
          "name": "account",
          "type": "address"
        }
      ],
      "name": "testWithdraw",
      "outputs": [],
      "stateMutability": "nonpayable",
      "type": "function"
    },
    {
      "inputs": [],
      "name": "withdraw",
      "outputs": [],
      "stateMutability": "nonpayable",
      "type": "function"
    }
  ],
  "bytecode": "0x608060405234801561001057600080fd5b5033600260006101000a81548173ffffffffffffffffffffffffffffffffffffffff021916908373ffffffffffffffffffffffffffffffffffffffff1602179055506000600181905550611081806100696000396000f3fe6080604052600436106100555760003560e01c80633ccfd60b1461005a5780638868b0cd146100715780638da5cb5b1461009a578063d0e30db0146100c5578063da2dca10146100cf578063e3d670d7146100f8575b600080fd5b34801561006657600080fd5b5061006f610135565b005b34801561007d57600080fd5b50610098600480360381019061009391906109ac565b6102d9565b005b3480156100a657600080fd5b506100af61047d565b6040516100bc91906109e8565b60405180910390f35b6100cd6104a3565b005b3480156100db57600080fd5b506100f660048036038101906100f19190610a39565b610663565b005b34801561010457600080fd5b5061011f600480360381019061011a91906109ac565b61086c565b60405161012c9190610a88565b60405180910390f35b62278d00600354426101479190610ad2565b11610187576040517f08c379a000000000000000000000000000000000000000000000000000000000815260040161017e90610b63565b60405180910390fd5b60008060003373ffffffffffffffffffffffffffffffffffffffff1673ffffffffffffffffffffffffffffffffffffffff1681526020019081526020016000205411610208576040517f08c379a00000000000000000000000000000000000000000000000000000000081526004016101ff90610bcf565b60405180910390fd5b60008060003373ffffffffffffffffffffffffffffffffffffffff1673ffffffffffffffffffffffffffffffffffffffff16815260200190815260200160002054905060008060003373ffffffffffffffffffffffffffffffffffffffff1673ffffffffffffffffffffffffffffffffffffffff168152602001908152602001600020819055503373ffffffffffffffffffffffffffffffffffffffff166108fc829081150290604051600060405180830381858888f193505050501580156102d5573d6000803e3d6000fd5b5050565b6103186040518060400160405280600e81526020017f43757272656e742054696d653a2000000000000000000000000000000000000081525042610884565b6002600354426103289190610ad2565b11610368576040517f08c379a000000000000000000000000000000000000000000000000000000000815260040161035f90610c3b565b60405180910390fd5b60008060008373ffffffffffffffffffffffffffffffffffffffff1673ffffffffffffffffffffffffffffffffffffffff168152602001908152602001600020549050600081116103ee576040517f08c379a00000000000000000000000000000000000000000000000000000000081526004016103e590610bcf565b60405180910390fd5b60008060008473ffffffffffffffffffffffffffffffffffffffff1673ffffffffffffffffffffffffffffffffffffffff168152602001908152602001600020819055508173ffffffffffffffffffffffffffffffffffffffff166108fc829081150290604051600060405180830381858888f19350505050158015610478573d6000803e3d6000fd5b505050565b600260009054906101000a900473ffffffffffffffffffffffffffffffffffffffff1681565b6000600154116104e8576040517f08c379a00000000000000000000000000000000000000000000000000000000081526004016104df90610ca7565b60405180910390fd5b6000600154346104f89190610cf6565b905060005b600480549050811015610617576000600482815481106105205761051f610d27565b5b90600052602060002090600202016040518060400160405290816000820160009054906101000a900473ffffffffffffffffffffffffffffffffffffffff1673ffffffffffffffffffffffffffffffffffffffff1673ffffffffffffffffffffffffffffffffffffffff16815260200160018201548152505090508281602001516105ab9190610d56565b600080836000015173ffffffffffffffffffffffffffffffffffffffff1673ffffffffffffffffffffffffffffffffffffffff16815260200190815260200160002060008282546105fc9190610db0565b9250508190555050808061060f90610e06565b9150506104fd565b50426003819055506106606040518060400160405280600a81526020017f4c6173742052756e3a2000000000000000000000000000000000000000000000815250600354610884565b50565b600260009054906101000a900473ffffffffffffffffffffffffffffffffffffffff1673ffffffffffffffffffffffffffffffffffffffff163373ffffffffffffffffffffffffffffffffffffffff16146106f3576040517f08c379a00000000000000000000000000000000000000000000000000000000081526004016106ea90610e9b565b60405180910390fd5b60008111610736576040517f08c379a000000000000000000000000000000000000000000000000000000000815260040161072d90610f07565b60405180910390fd5b600073ffffffffffffffffffffffffffffffffffffffff168273ffffffffffffffffffffffffffffffffffffffff1614156107a6576040517f08c379a000000000000000000000000000000000000000000000000000000000815260040161079d90610f73565b60405180910390fd5b600460405180604001604052808473ffffffffffffffffffffffffffffffffffffffff16815260200183815250908060018154018082558091505060019003906000526020600020906002020160009091909190915060008201518160000160006101000a81548173ffffffffffffffffffffffffffffffffffffffff021916908373ffffffffffffffffffffffffffffffffffffffff16021790555060208201518160010155505080600160008282546108619190610db0565b925050819055505050565b60006020528060005260406000206000915090505481565b61091c828260405160240161089a92919061101b565b6040516020818303038152906040527f9710a9d0000000000000000000000000000000000000000000000000000000007bffffffffffffffffffffffffffffffffffffffffffffffffffffffff19166020820180517bffffffffffffffffffffffffffffffffffffffffffffffffffffffff8381831617835250505050610920565b5050565b60008151905060006a636f6e736f6c652e6c6f679050602083016000808483855afa5050505050565b600080fd5b600073ffffffffffffffffffffffffffffffffffffffff82169050919050565b60006109798261094e565b9050919050565b6109898161096e565b811461099457600080fd5b50565b6000813590506109a681610980565b92915050565b6000602082840312156109c2576109c1610949565b5b60006109d084828501610997565b91505092915050565b6109e28161096e565b82525050565b60006020820190506109fd60008301846109d9565b92915050565b6000819050919050565b610a1681610a03565b8114610a2157600080fd5b50565b600081359050610a3381610a0d565b92915050565b60008060408385031215610a5057610a4f610949565b5b6000610a5e85828601610997565b9250506020610a6f85828601610a24565b9150509250929050565b610a8281610a03565b82525050565b6000602082019050610a9d6000830184610a79565b92915050565b7f4e487b7100000000000000000000000000000000000000000000000000000000600052601160045260246000fd5b6000610add82610a03565b9150610ae883610a03565b925082821015610afb57610afa610aa3565b5b828203905092915050565b600082825260208201905092915050565b7f4e65656420746f20776169742031206d6f6e7468000000000000000000000000600082015250565b6000610b4d601483610b06565b9150610b5882610b17565b602082019050919050565b60006020820190508181036000830152610b7c81610b40565b9050919050565b7f496e7661696c69642062616c616e636500000000000000000000000000000000600082015250565b6000610bb9601083610b06565b9150610bc482610b83565b602082019050919050565b60006020820190508181036000830152610be881610bac565b9050919050565b7f4e65656420746f20776169742032207365636f6e640000000000000000000000600082015250565b6000610c25601583610b06565b9150610c3082610bef565b602082019050919050565b60006020820190508181036000830152610c5481610c18565b9050919050565b7f4e6f742073706c69747465722079657400000000000000000000000000000000600082015250565b6000610c91601083610b06565b9150610c9c82610c5b565b602082019050919050565b60006020820190508181036000830152610cc081610c84565b9050919050565b7f4e487b7100000000000000000000000000000000000000000000000000000000600052601260045260246000fd5b6000610d0182610a03565b9150610d0c83610a03565b925082610d1c57610d1b610cc7565b5b828204905092915050565b7f4e487b7100000000000000000000000000000000000000000000000000000000600052603260045260246000fd5b6000610d6182610a03565b9150610d6c83610a03565b9250817fffffffffffffffffffffffffffffffffffffffffffffffffffffffffffffffff0483118215151615610da557610da4610aa3565b5b828202905092915050565b6000610dbb82610a03565b9150610dc683610a03565b9250827fffffffffffffffffffffffffffffffffffffffffffffffffffffffffffffffff03821115610dfb57610dfa610aa3565b5b828201905092915050565b6000610e1182610a03565b91507fffffffffffffffffffffffffffffffffffffffffffffffffffffffffffffffff821415610e4457610e43610aa3565b5b600182019050919050565b7f4e6f7420616c6c6f776564000000000000000000000000000000000000000000600082015250565b6000610e85600b83610b06565b9150610e9082610e4f565b602082019050919050565b60006020820190508181036000830152610eb481610e78565b9050919050565b7f496e76616c696420736861726500000000000000000000000000000000000000600082015250565b6000610ef1600d83610b06565b9150610efc82610ebb565b602082019050919050565b60006020820190508181036000830152610f2081610ee4565b9050919050565b7f496e76616c696420616464726573730000000000000000000000000000000000600082015250565b6000610f5d600f83610b06565b9150610f6882610f27565b602082019050919050565b60006020820190508181036000830152610f8c81610f50565b9050919050565b600081519050919050565b60005b83811015610fbc578082015181840152602081019050610fa1565b83811115610fcb576000848401525b50505050565b6000601f19601f8301169050919050565b6000610fed82610f93565b610ff78185610b06565b9350611007818560208601610f9e565b61101081610fd1565b840191505092915050565b600060408201905081810360008301526110358185610fe2565b90506110446020830184610a79565b939250505056fea2646970667358221220a29980530c6924e4eefa33a69b769b4a18596fdc24efc9136907beabbfc4351c64736f6c634300080a0033",
  "linkReferences": {},
  "deployedLinkReferences": {}
}